{
  "contractName": "Companies",
  "abi": [
    {
      "constant": true,
      "inputs": [],
      "name": "isCurrentOwner",
      "outputs": [
        {
          "internalType": "bool",
          "name": "",
          "type": "bool"
        }
      ],
      "payable": false,
      "stateMutability": "view",
      "type": "function"
    },
    {
      "constant": false,
      "inputs": [
        {
          "internalType": "string",
          "name": "__name",
          "type": "string"
        },
        {
          "internalType": "string",
          "name": "__address",
          "type": "string"
        },
        {
          "internalType": "string",
          "name": "__phoneNumber",
          "type": "string"
        }
      ],
      "name": "addCompany",
      "outputs": [],
      "payable": false,
      "stateMutability": "nonpayable",
      "type": "function"
    },
    {
      "constant": true,
      "inputs": [],
      "name": "getAllCompanies",
      "outputs": [
        {
          "components": [
            {
              "internalType": "bytes32",
              "name": "_companyID",
              "type": "bytes32"
            },
            {
              "internalType": "string",
              "name": "_name",
              "type": "string"
            },
            {
              "internalType": "string",
              "name": "_address",
              "type": "string"
            },
            {
              "internalType": "string",
              "name": "_phoneNumber",
              "type": "string"
            }
          ],
          "internalType": "struct Companies.Company[]",
          "name": "",
          "type": "tuple[]"
        }
      ],
      "payable": false,
      "stateMutability": "view",
      "type": "function"
    },
    {
      "constant": true,
      "inputs": [
        {
          "internalType": "bytes32",
          "name": "companyID",
          "type": "bytes32"
        }
      ],
      "name": "getCompanyByID",
      "outputs": [
        {
          "internalType": "string",
          "name": "",
          "type": "string"
        },
        {
          "internalType": "string",
          "name": "",
          "type": "string"
        },
        {
          "internalType": "string",
          "name": "",
          "type": "string"
        }
      ],
      "payable": false,
      "stateMutability": "view",
      "type": "function"
    },
    {
      "constant": true,
      "inputs": [],
      "name": "getCompaniesCount",
      "outputs": [
        {
          "internalType": "uint256",
          "name": "",
          "type": "uint256"
        }
      ],
      "payable": false,
      "stateMutability": "view",
      "type": "function"
    }
  ],
  "bytecode": "0x6080604052336000806101000a81548173ffffffffffffffffffffffffffffffffffffffff021916908373ffffffffffffffffffffffffffffffffffffffff160217905550611126806100536000396000f3fe608060405234801561001057600080fd5b50600436106100575760003560e01c806316e2da211461005c578063408bf4c31461007a5780638de5dc8e14610098578063a217a5a2146100ca578063ccb0a334146100e6575b600080fd5b610064610104565b6040516100719190610ea2565b60405180910390f35b61008261019c565b60405161008f9190610e80565b60405180910390f35b6100b260048036036100ad9190810190610adf565b61047a565b6040516100c193929190610ebd565b60405180910390f35b6100e460048036036100df9190810190610b08565b610761565b005b6100ee610935565b6040516100fb9190610f69565b60405180910390f35b60008060009054906101000a900473ffffffffffffffffffffffffffffffffffffffff1673ffffffffffffffffffffffffffffffffffffffff163373ffffffffffffffffffffffffffffffffffffffff1614610195576040517f08c379a000000000000000000000000000000000000000000000000000000000815260040161018c90610f09565b60405180910390fd5b6001905090565b60606000809054906101000a900473ffffffffffffffffffffffffffffffffffffffff1673ffffffffffffffffffffffffffffffffffffffff163373ffffffffffffffffffffffffffffffffffffffff161461022d576040517f08c379a000000000000000000000000000000000000000000000000000000000815260040161022490610f09565b60405180910390fd5b6001805480602002602001604051908101604052809291908181526020016000905b82821015610471578382906000526020600020906004020160405180608001604052908160008201548152602001600182018054600181600116156101000203166002900480601f0160208091040260200160405190810160405280929190818152602001828054600181600116156101000203166002900480156103155780601f106102ea57610100808354040283529160200191610315565b820191906000526020600020905b8154815290600101906020018083116102f857829003601f168201915b50505050508152602001600282018054600181600116156101000203166002900480601f0160208091040260200160405190810160405280929190818152602001828054600181600116156101000203166002900480156103b75780601f1061038c576101008083540402835291602001916103b7565b820191906000526020600020905b81548152906001019060200180831161039a57829003601f168201915b50505050508152602001600382018054600181600116156101000203166002900480601f0160208091040260200160405190810160405280929190818152602001828054600181600116156101000203166002900480156104595780601f1061042e57610100808354040283529160200191610459565b820191906000526020600020905b81548152906001019060200180831161043c57829003601f168201915b5050505050815250508152602001906001019061024f565b50505050905090565b6060806060600080905060008090506000610493610935565b905060008090505b818110156104e25787600182815481106104b157fe5b90600052602060002090600402016000015414156104d557600193508092506104e2565b808060010191505061049b565b5082610523576040517f08c379a000000000000000000000000000000000000000000000000000000000815260040161051a90610f29565b60405180910390fd5b6001828154811061053057fe5b90600052602060002090600402016001016001838154811061054e57fe5b90600052602060002090600402016002016001848154811061056c57fe5b9060005260206000209060040201600301828054600181600116156101000203166002900480601f0160208091040260200160405190810160405280929190818152602001828054600181600116156101000203166002900480156106125780601f106105e757610100808354040283529160200191610612565b820191906000526020600020905b8154815290600101906020018083116105f557829003601f168201915b50505050509250818054600181600116156101000203166002900480601f0160208091040260200160405190810160405280929190818152602001828054600181600116156101000203166002900480156106ae5780601f10610683576101008083540402835291602001916106ae565b820191906000526020600020905b81548152906001019060200180831161069157829003601f168201915b50505050509150808054600181600116156101000203166002900480601f01602080910402602001604051908101604052809291908181526020018280546001816001161561010002031660029004801561074a5780601f1061071f5761010080835404028352916020019161074a565b820191906000526020600020905b81548152906001019060200180831161072d57829003601f168201915b505050505090509550955095505050509193909250565b6000809054906101000a900473ffffffffffffffffffffffffffffffffffffffff1673ffffffffffffffffffffffffffffffffffffffff163373ffffffffffffffffffffffffffffffffffffffff16146107f0576040517f08c379a00000000000000000000000000000000000000000000000000000000081526004016107e790610f09565b60405180910390fd5b600083838360405160200161080793929190610e4f565b60405160208183030381529060405280519060200120905060008451118015610831575060008351115b801561083e575060008251115b61087d576040517f08c379a000000000000000000000000000000000000000000000000000000000815260040161087490610f49565b60405180910390fd5b6001604051806080016040528083815260200186815260200185815260200184815250908060018154018082558091505090600182039060005260206000209060040201600090919290919091506000820151816000015560208201518160010190805190602001906108f19291906109d1565b50604082015181600201908051906020019061090e9291906109d1565b50606082015181600301908051906020019061092b9291906109d1565b5050505050505050565b60008060009054906101000a900473ffffffffffffffffffffffffffffffffffffffff1673ffffffffffffffffffffffffffffffffffffffff163373ffffffffffffffffffffffffffffffffffffffff16146109c6576040517f08c379a00000000000000000000000000000000000000000000000000000000081526004016109bd90610f09565b60405180910390fd5b600180549050905090565b828054600181600116156101000203166002900490600052602060002090601f016020900481019282601f10610a1257805160ff1916838001178555610a40565b82800160010185558215610a40579182015b82811115610a3f578251825591602001919060010190610a24565b5b509050610a4d9190610a51565b5090565b610a7391905b80821115610a6f576000816000905550600101610a57565b5090565b90565b600081359050610a85816110cc565b92915050565b600082601f830112610a9c57600080fd5b8135610aaf610aaa82610fb1565b610f84565b91508082526020830160208301858383011115610acb57600080fd5b610ad6838284611079565b50505092915050565b600060208284031215610af157600080fd5b6000610aff84828501610a76565b91505092915050565b600080600060608486031215610b1d57600080fd5b600084013567ffffffffffffffff811115610b3757600080fd5b610b4386828701610a8b565b935050602084013567ffffffffffffffff811115610b6057600080fd5b610b6c86828701610a8b565b925050604084013567ffffffffffffffff811115610b8957600080fd5b610b9586828701610a8b565b9150509250925092565b6000610bab8383610dcf565b905092915050565b6000610bbe82610fed565b610bc8818561101b565b935083602082028501610bda85610fdd565b8060005b85811015610c165784840389528151610bf78582610b9f565b9450610c028361100e565b925060208a01995050600181019050610bde565b50829750879550505050505092915050565b610c3181611059565b82525050565b610c4081611065565b82525050565b6000610c5182611003565b610c5b818561103d565b9350610c6b818560208601611088565b610c74816110bb565b840191505092915050565b6000610c8a82611003565b610c94818561104e565b9350610ca4818560208601611088565b80840191505092915050565b6000610cbb82610ff8565b610cc5818561102c565b9350610cd5818560208601611088565b610cde816110bb565b840191505092915050565b6000610cf6600c8361103d565b91507f556e617574686f72697a656400000000000000000000000000000000000000006000830152602082019050919050565b6000610d3660158361103d565b91507f436f6d70616e79206973206e6f7420666f756e642100000000000000000000006000830152602082019050919050565b6000610d7660218361103d565b91507f436f6d70616e7920617474726962757465732063616e6e6f74206265206e756c60008301527f6c000000000000000000000000000000000000000000000000000000000000006020830152604082019050919050565b6000608083016000830151610de76000860182610c37565b5060208301518482036020860152610dff8282610cb0565b91505060408301518482036040860152610e198282610cb0565b91505060608301518482036060860152610e338282610cb0565b9150508091505092915050565b610e498161106f565b82525050565b6000610e5b8286610c7f565b9150610e678285610c7f565b9150610e738284610c7f565b9150819050949350505050565b60006020820190508181036000830152610e9a8184610bb3565b905092915050565b6000602082019050610eb76000830184610c28565b92915050565b60006060820190508181036000830152610ed78186610c46565b90508181036020830152610eeb8185610c46565b90508181036040830152610eff8184610c46565b9050949350505050565b60006020820190508181036000830152610f2281610ce9565b9050919050565b60006020820190508181036000830152610f4281610d29565b9050919050565b60006020820190508181036000830152610f6281610d69565b9050919050565b6000602082019050610f7e6000830184610e40565b92915050565b6000604051905081810181811067ffffffffffffffff82111715610fa757600080fd5b8060405250919050565b600067ffffffffffffffff821115610fc857600080fd5b601f19601f8301169050602081019050919050565b6000819050602082019050919050565b600081519050919050565b600081519050919050565b600081519050919050565b6000602082019050919050565b600082825260208201905092915050565b600082825260208201905092915050565b600082825260208201905092915050565b600081905092915050565b60008115159050919050565b6000819050919050565b6000819050919050565b82818337600083830152505050565b60005b838110156110a657808201518184015260208101905061108b565b838111156110b5576000848401525b50505050565b6000601f19601f8301169050919050565b6110d581611065565b81146110e057600080fd5b5056fea365627a7a723158203404c7b8d6c789c1218a9237c3d1ab9315610f7021a087031c70bf9d2c6823af6c6578706572696d656e74616cf564736f6c63430005100040",
  "source": "pragma solidity 0.5.16;\npragma experimental ABIEncoderV2;\n\nimport \"./Owner.sol\";\n\ncontract Companies is Owner {\n    Company[] private companiesList;\n    struct Company {\n        bytes32 _companyID;\n        string _name;\n        string _address;\n        string _phoneNumber;\n    }\n    \n    \n    function addCompany(string memory __name, string memory __address, string memory __phoneNumber) public onlyOwner {\n        bytes32 __companyID = keccak256(abi.encodePacked(__name, __address, __phoneNumber));\n        require (\n            bytes(__name).length > 0 && bytes(__address).length > 0 && bytes(__phoneNumber).length > 0 ,\n            \"Company attributes cannot be null\"\n        );\n        companiesList.push(Company(__companyID, __name, __address, __phoneNumber));\n    }\n    \n    function getAllCompanies () public view onlyOwner returns (Company[] memory) {\n        return companiesList;\n    }\n\n    function getCompanyByID(bytes32 companyID) public view returns (string memory, string memory, string memory) {\n        bool isFound = false;\n        uint companyIdx = 0;\n        uint numOfCompanies = getCompaniesCount();\n        for (uint i = 0; i < numOfCompanies; i++) {\n            if (companiesList[i]._companyID == companyID) {\n                isFound = true;\n                companyIdx = i;\n                break;\n            }\n        }\n        require (\n            isFound,\n            \"Company is not found!\"\n        );\n        return (companiesList[companyIdx]._name, companiesList[companyIdx]._address, companiesList[companyIdx]._phoneNumber);\n    }\n    \n    function getCompaniesCount() public view onlyOwner returns (uint) {\n        return companiesList.length;\n    }\n    \n    \n}",
  "sourcePath": "/Users/edwardalexanderjaya/Desktop/ITB-Internal-Activities/Semester_6/ET4043-Blockchain/Tugas_Akhir/tax-blockchain/contracts/Companies.sol",
  "compiler": {
    "name": "solc",
    "version": "0.5.16+commit.9c3226ce.Emscripten.clang"
  },
  "schemaVersion": "3.0.23",
  "updatedAt": "2020-05-01T07:39:11.773Z",
  "networkType": "ethereum",
  "devdoc": {
    "methods": {}
  },
  "userdoc": {
    "methods": {}
  }
}