{
  "contractName": "Companies",
  "abi": [
    {
      "constant": true,
      "inputs": [],
      "name": "isCurrentOwner",
      "outputs": [
        {
          "internalType": "bool",
          "name": "",
          "type": "bool"
        }
      ],
      "payable": false,
      "stateMutability": "view",
      "type": "function"
    },
    {
      "constant": false,
      "inputs": [
        {
          "internalType": "string",
          "name": "__name",
          "type": "string"
        },
        {
          "internalType": "string",
          "name": "__address",
          "type": "string"
        },
        {
          "internalType": "string",
          "name": "__phoneNumber",
          "type": "string"
        }
      ],
      "name": "addCompany",
      "outputs": [],
      "payable": false,
      "stateMutability": "nonpayable",
      "type": "function"
    },
    {
      "constant": true,
      "inputs": [],
      "name": "getAllCompanies",
      "outputs": [
        {
          "components": [
            {
              "internalType": "bytes32",
              "name": "_companyID",
              "type": "bytes32"
            },
            {
              "internalType": "string",
              "name": "_name",
              "type": "string"
            },
            {
              "internalType": "string",
              "name": "_address",
              "type": "string"
            },
            {
              "internalType": "string",
              "name": "_phoneNumber",
              "type": "string"
            }
          ],
          "internalType": "struct Companies.Company[]",
          "name": "",
          "type": "tuple[]"
        }
      ],
      "payable": false,
      "stateMutability": "view",
      "type": "function"
    },
    {
      "constant": true,
      "inputs": [
        {
          "internalType": "bytes32",
          "name": "companyID",
          "type": "bytes32"
        }
      ],
      "name": "getCompanyByID",
      "outputs": [
        {
          "internalType": "string",
          "name": "",
          "type": "string"
        },
        {
          "internalType": "string",
          "name": "",
          "type": "string"
        },
        {
          "internalType": "string",
          "name": "",
          "type": "string"
        }
      ],
      "payable": false,
      "stateMutability": "view",
      "type": "function"
    },
    {
      "constant": true,
      "inputs": [],
      "name": "getCompaniesCount",
      "outputs": [
        {
          "internalType": "uint256",
          "name": "",
          "type": "uint256"
        }
      ],
      "payable": false,
      "stateMutability": "view",
      "type": "function"
    }
  ],
  "bytecode": "0x6080604052336000806101000a81548173ffffffffffffffffffffffffffffffffffffffff021916908373ffffffffffffffffffffffffffffffffffffffff1602179055506110df806100536000396000f3fe608060405234801561001057600080fd5b50600436106100575760003560e01c806316e2da211461005c578063408bf4c31461007a5780638de5dc8e14610098578063a217a5a2146100ca578063ccb0a334146100e6575b600080fd5b610064610104565b6040516100719190610e51565b60405180910390f35b61008261019c565b60405161008f9190610e2f565b60405180910390f35b6100b260048036036100ad9190810190610a66565b61047a565b6040516100c193929190610e6c565b60405180910390f35b6100e460048036036100df9190810190610a8f565b610761565b005b6100ee61094b565b6040516100fb9190610f18565b60405180910390f35b60008060009054906101000a900473ffffffffffffffffffffffffffffffffffffffff1673ffffffffffffffffffffffffffffffffffffffff163373ffffffffffffffffffffffffffffffffffffffff1614610195576040517f08c379a000000000000000000000000000000000000000000000000000000000815260040161018c90610eb8565b60405180910390fd5b6001905090565b60606000809054906101000a900473ffffffffffffffffffffffffffffffffffffffff1673ffffffffffffffffffffffffffffffffffffffff163373ffffffffffffffffffffffffffffffffffffffff161461022d576040517f08c379a000000000000000000000000000000000000000000000000000000000815260040161022490610eb8565b60405180910390fd5b6002805480602002602001604051908101604052809291908181526020016000905b82821015610471578382906000526020600020906004020160405180608001604052908160008201548152602001600182018054600181600116156101000203166002900480601f0160208091040260200160405190810160405280929190818152602001828054600181600116156101000203166002900480156103155780601f106102ea57610100808354040283529160200191610315565b820191906000526020600020905b8154815290600101906020018083116102f857829003601f168201915b50505050508152602001600282018054600181600116156101000203166002900480601f0160208091040260200160405190810160405280929190818152602001828054600181600116156101000203166002900480156103b75780601f1061038c576101008083540402835291602001916103b7565b820191906000526020600020905b81548152906001019060200180831161039a57829003601f168201915b50505050508152602001600382018054600181600116156101000203166002900480601f0160208091040260200160405190810160405280929190818152602001828054600181600116156101000203166002900480156104595780601f1061042e57610100808354040283529160200191610459565b820191906000526020600020905b81548152906001019060200180831161043c57829003601f168201915b5050505050815250508152602001906001019061024f565b50505050905090565b606080606060008090506000809050600061049361094b565b905060008090505b818110156104e25787600282815481106104b157fe5b90600052602060002090600402016000015414156104d557600193508092506104e2565b808060010191505061049b565b5082610523576040517f08c379a000000000000000000000000000000000000000000000000000000000815260040161051a90610ed8565b60405180910390fd5b6002828154811061053057fe5b90600052602060002090600402016001016002838154811061054e57fe5b90600052602060002090600402016002016002848154811061056c57fe5b9060005260206000209060040201600301828054600181600116156101000203166002900480601f0160208091040260200160405190810160405280929190818152602001828054600181600116156101000203166002900480156106125780601f106105e757610100808354040283529160200191610612565b820191906000526020600020905b8154815290600101906020018083116105f557829003601f168201915b50505050509250818054600181600116156101000203166002900480601f0160208091040260200160405190810160405280929190818152602001828054600181600116156101000203166002900480156106ae5780601f10610683576101008083540402835291602001916106ae565b820191906000526020600020905b81548152906001019060200180831161069157829003601f168201915b50505050509150808054600181600116156101000203166002900480601f01602080910402602001604051908101604052809291908181526020018280546001816001161561010002031660029004801561074a5780601f1061071f5761010080835404028352916020019161074a565b820191906000526020600020905b81548152906001019060200180831161072d57829003601f168201915b505050505090509550955095505050509193909250565b6000809054906101000a900473ffffffffffffffffffffffffffffffffffffffff1673ffffffffffffffffffffffffffffffffffffffff163373ffffffffffffffffffffffffffffffffffffffff16146107f0576040517f08c379a00000000000000000000000000000000000000000000000000000000081526004016107e790610eb8565b60405180910390fd5b600160008154809291906001019190505550600083838360015460405160200161081d9493929190610ded565b60405160208183030381529060405280519060200120905060008451118015610847575060008351115b8015610854575060008251115b610893576040517f08c379a000000000000000000000000000000000000000000000000000000000815260040161088a90610ef8565b60405180910390fd5b600260405180608001604052808381526020018681526020018581526020018481525090806001815401808255809150509060018203906000526020600020906004020160009091929091909150600082015181600001556020820151816001019080519060200190610907929190610958565b506040820151816002019080519060200190610924929190610958565b506060820151816003019080519060200190610941929190610958565b5050505050505050565b6000600280549050905090565b828054600181600116156101000203166002900490600052602060002090601f016020900481019282601f1061099957805160ff19168380011785556109c7565b828001600101855582156109c7579182015b828111156109c65782518255916020019190600101906109ab565b5b5090506109d491906109d8565b5090565b6109fa91905b808211156109f65760008160009055506001016109de565b5090565b90565b600081359050610a0c81611085565b92915050565b600082601f830112610a2357600080fd5b8135610a36610a3182610f60565b610f33565b91508082526020830160208301858383011115610a5257600080fd5b610a5d838284611028565b50505092915050565b600060208284031215610a7857600080fd5b6000610a86848285016109fd565b91505092915050565b600080600060608486031215610aa457600080fd5b600084013567ffffffffffffffff811115610abe57600080fd5b610aca86828701610a12565b935050602084013567ffffffffffffffff811115610ae757600080fd5b610af386828701610a12565b925050604084013567ffffffffffffffff811115610b1057600080fd5b610b1c86828701610a12565b9150509250925092565b6000610b328383610d56565b905092915050565b6000610b4582610f9c565b610b4f8185610fca565b935083602082028501610b6185610f8c565b8060005b85811015610b9d5784840389528151610b7e8582610b26565b9450610b8983610fbd565b925060208a01995050600181019050610b65565b50829750879550505050505092915050565b610bb881611008565b82525050565b610bc781611014565b82525050565b6000610bd882610fb2565b610be28185610fec565b9350610bf2818560208601611037565b610bfb81611074565b840191505092915050565b6000610c1182610fb2565b610c1b8185610ffd565b9350610c2b818560208601611037565b80840191505092915050565b6000610c4282610fa7565b610c4c8185610fdb565b9350610c5c818560208601611037565b610c6581611074565b840191505092915050565b6000610c7d600c83610fec565b91507f556e617574686f72697a656400000000000000000000000000000000000000006000830152602082019050919050565b6000610cbd601583610fec565b91507f436f6d70616e79206973206e6f7420666f756e642100000000000000000000006000830152602082019050919050565b6000610cfd602183610fec565b91507f436f6d70616e7920617474726962757465732063616e6e6f74206265206e756c60008301527f6c000000000000000000000000000000000000000000000000000000000000006020830152604082019050919050565b6000608083016000830151610d6e6000860182610bbe565b5060208301518482036020860152610d868282610c37565b91505060408301518482036040860152610da08282610c37565b91505060608301518482036060860152610dba8282610c37565b9150508091505092915050565b610dd08161101e565b82525050565b610de7610de28261101e565b61106a565b82525050565b6000610df98287610c06565b9150610e058286610c06565b9150610e118285610c06565b9150610e1d8284610dd6565b60208201915081905095945050505050565b60006020820190508181036000830152610e498184610b3a565b905092915050565b6000602082019050610e666000830184610baf565b92915050565b60006060820190508181036000830152610e868186610bcd565b90508181036020830152610e9a8185610bcd565b90508181036040830152610eae8184610bcd565b9050949350505050565b60006020820190508181036000830152610ed181610c70565b9050919050565b60006020820190508181036000830152610ef181610cb0565b9050919050565b60006020820190508181036000830152610f1181610cf0565b9050919050565b6000602082019050610f2d6000830184610dc7565b92915050565b6000604051905081810181811067ffffffffffffffff82111715610f5657600080fd5b8060405250919050565b600067ffffffffffffffff821115610f7757600080fd5b601f19601f8301169050602081019050919050565b6000819050602082019050919050565b600081519050919050565b600081519050919050565b600081519050919050565b6000602082019050919050565b600082825260208201905092915050565b600082825260208201905092915050565b600082825260208201905092915050565b600081905092915050565b60008115159050919050565b6000819050919050565b6000819050919050565b82818337600083830152505050565b60005b8381101561105557808201518184015260208101905061103a565b83811115611064576000848401525b50505050565b6000819050919050565b6000601f19601f8301169050919050565b61108e81611014565b811461109957600080fd5b5056fea365627a7a72315820a1dcf3ff036f95a0f33808c0f285a887fedc5f4b5bc178c65a7599f91144e7096c6578706572696d656e74616cf564736f6c63430005100040",
  "source": "pragma solidity 0.5.16;\npragma experimental ABIEncoderV2;\n\nimport \"./Owner.sol\";\n\ncontract Companies is Owner {\n    uint256 countCompany;\n    Company[] private companiesList;\n    struct Company {\n        bytes32 _companyID;\n        string _name;\n        string _address;\n        string _phoneNumber;\n    }\n    \n    \n    function addCompany(string memory __name, string memory __address, string memory __phoneNumber) public onlyOwner {\n        countCompany++;\n        bytes32 __companyID = keccak256(abi.encodePacked(__name, __address, __phoneNumber, countCompany));\n        require (\n            bytes(__name).length > 0 && bytes(__address).length > 0 && bytes(__phoneNumber).length > 0 ,\n            \"Company attributes cannot be null\"\n        );\n        companiesList.push(Company(__companyID, __name, __address, __phoneNumber));\n    }\n    \n    function getAllCompanies () public view onlyOwner returns (Company[] memory) {\n        return companiesList;\n    }\n\n    function getCompanyByID(bytes32 companyID) public view returns (string memory, string memory, string memory) {\n        bool isFound = false;\n        uint companyIdx = 0;\n        uint numOfCompanies = getCompaniesCount();\n        for (uint i = 0; i < numOfCompanies; i++) {\n            if (companiesList[i]._companyID == companyID) {\n                isFound = true;\n                companyIdx = i;\n                break;\n            }\n        }\n        require (\n            isFound,\n            \"Company is not found!\"\n        );\n        return (companiesList[companyIdx]._name, companiesList[companyIdx]._address, companiesList[companyIdx]._phoneNumber);\n    }\n    \n    function getCompaniesCount() public view returns (uint) {\n        return companiesList.length;\n    }\n    \n    \n}",
  "sourcePath": "/Users/edwardalexanderjaya/Desktop/ITB-Internal-Activities/Semester_6/ET4043-Blockchain/Tugas_Akhir/tax-blockchain/contracts/Companies.sol",
  "compiler": {
    "name": "solc",
    "version": "0.5.16+commit.9c3226ce.Emscripten.clang"
  },
  "schemaVersion": "3.0.23",
  "updatedAt": "2020-05-06T15:14:50.450Z",
  "networkType": "ethereum",
  "devdoc": {
    "methods": {}
  },
  "userdoc": {
    "methods": {}
  }
}