{
  "contractName": "Invoicing",
  "abi": [
    {
      "anonymous": false,
      "inputs": [
        {
          "indexed": false,
          "internalType": "bytes32",
          "name": "_hashId",
          "type": "bytes32"
        },
        {
          "indexed": false,
          "internalType": "bytes32",
          "name": "_payeeID",
          "type": "bytes32"
        }
      ],
      "name": "InvoiceAdded",
      "type": "event"
    },
    {
      "anonymous": false,
      "inputs": [
        {
          "indexed": false,
          "internalType": "bytes32",
          "name": "_hashId",
          "type": "bytes32"
        },
        {
          "indexed": false,
          "internalType": "bytes32",
          "name": "_payeeID",
          "type": "bytes32"
        }
      ],
      "name": "InvoicePaid",
      "type": "event"
    },
    {
      "constant": true,
      "inputs": [],
      "name": "isCurrentOwner",
      "outputs": [
        {
          "internalType": "bool",
          "name": "",
          "type": "bool"
        }
      ],
      "payable": false,
      "stateMutability": "view",
      "type": "function"
    },
    {
      "constant": false,
      "inputs": [
        {
          "internalType": "bytes32",
          "name": "_payeeID",
          "type": "bytes32"
        },
        {
          "internalType": "uint256",
          "name": "_amountToPay",
          "type": "uint256"
        }
      ],
      "name": "addInvoice",
      "outputs": [],
      "payable": false,
      "stateMutability": "nonpayable",
      "type": "function"
    },
    {
      "constant": true,
      "inputs": [
        {
          "internalType": "bytes32",
          "name": "_hashID",
          "type": "bytes32"
        },
        {
          "internalType": "bytes32",
          "name": "_payeeID",
          "type": "bytes32"
        }
      ],
      "name": "getInvoiceStatus",
      "outputs": [
        {
          "internalType": "uint256",
          "name": "",
          "type": "uint256"
        },
        {
          "internalType": "bool",
          "name": "",
          "type": "bool"
        }
      ],
      "payable": false,
      "stateMutability": "view",
      "type": "function"
    },
    {
      "constant": true,
      "inputs": [
        {
          "internalType": "bytes32",
          "name": "_payeeID",
          "type": "bytes32"
        }
      ],
      "name": "getInvoicesCountByCompanyID",
      "outputs": [
        {
          "internalType": "uint256",
          "name": "",
          "type": "uint256"
        }
      ],
      "payable": false,
      "stateMutability": "view",
      "type": "function"
    },
    {
      "constant": false,
      "inputs": [
        {
          "internalType": "bytes32",
          "name": "_hashID",
          "type": "bytes32"
        },
        {
          "internalType": "bytes32",
          "name": "_payeeID",
          "type": "bytes32"
        }
      ],
      "name": "payInvoice",
      "outputs": [],
      "payable": true,
      "stateMutability": "payable",
      "type": "function"
    },
    {
      "constant": true,
      "inputs": [
        {
          "internalType": "bytes32",
          "name": "_payeeID",
          "type": "bytes32"
        }
      ],
      "name": "getInvoicesByCompanyID",
      "outputs": [
        {
          "components": [
            {
              "internalType": "bytes32",
              "name": "hashID",
              "type": "bytes32"
            },
            {
              "internalType": "uint256",
              "name": "amountToPay",
              "type": "uint256"
            },
            {
              "internalType": "bool",
              "name": "isInvoicePaid",
              "type": "bool"
            },
            {
              "internalType": "bool",
              "name": "exists",
              "type": "bool"
            }
          ],
          "internalType": "struct Invoicing.Invoice[]",
          "name": "",
          "type": "tuple[]"
        }
      ],
      "payable": false,
      "stateMutability": "view",
      "type": "function"
    }
  ],
  "bytecode": "0x60806040526000600155336000806101000a81548173ffffffffffffffffffffffffffffffffffffffff021916908373ffffffffffffffffffffffffffffffffffffffff160217905550610dae806100586000396000f3fe6080604052600436106100555760003560e01c806312a8b6891461005a57806316e2da21146100835780633eb91589146100ae57806369127e99146100eb578063bf4f1c3114610128578063c169545714610144575b600080fd5b34801561006657600080fd5b50610081600480360361007c919081019061093a565b610182565b005b34801561008f57600080fd5b506100986103f7565b6040516100a59190610bd7565b60405180910390f35b3480156100ba57600080fd5b506100d560048036036100d091908101906108d5565b61048f565b6040516100e29190610bb5565b60405180910390f35b3480156100f757600080fd5b50610112600480360361010d91908101906108d5565b61059c565b60405161011f9190610c7b565b60405180910390f35b610142600480360361013d91908101906108fe565b6105bc565b005b34801561015057600080fd5b5061016b600480360361016691908101906108fe565b6107cc565b604051610179929190610c96565b60405180910390f35b6000809054906101000a900473ffffffffffffffffffffffffffffffffffffffff1673ffffffffffffffffffffffffffffffffffffffff163373ffffffffffffffffffffffffffffffffffffffff1614610211576040517f08c379a000000000000000000000000000000000000000000000000000000000815260040161020890610c1b565b60405180910390fd5b60016000815480929190600101919050555081600154604051602001610238929190610b89565b6040516020818303038152906040528051906020012060028190555060405180608001604052806002548152602001828152602001600015158152602001600115158152506003600084815260200190815260200160002060006002548152602001908152602001600020600082015181600001556020820151816001015560408201518160020160006101000a81548160ff02191690831515021790555060608201518160020160016101000a81548160ff02191690831515021790555090505060046000838152602001908152602001600020604051806080016040528060025481526020018381526020016000151581526020016001151581525090806001815401808255809150509060018203906000526020600020906003020160009091929091909150600082015181600001556020820151816001015560408201518160020160006101000a81548160ff02191690831515021790555060608201518160020160016101000a81548160ff0219169083151502179055505050507f2483f0687c3490258a562583465f4430c867cf94a6c0bbad25f039be8d404fef600254836040516103eb929190610bf2565b60405180910390a15050565b60008060009054906101000a900473ffffffffffffffffffffffffffffffffffffffff1673ffffffffffffffffffffffffffffffffffffffff163373ffffffffffffffffffffffffffffffffffffffff1614610488576040517f08c379a000000000000000000000000000000000000000000000000000000000815260040161047f90610c1b565b60405180910390fd5b6001905090565b6060600061049c8361059c565b9050600081116104e1576040517f08c379a00000000000000000000000000000000000000000000000000000000081526004016104d890610c5b565b60405180910390fd5b60046000848152602001908152602001600020805480602002602001604051908101604052809291908181526020016000905b82821015610590578382906000526020600020906003020160405180608001604052908160008201548152602001600182015481526020016002820160009054906101000a900460ff161515151581526020016002820160019054906101000a900460ff16151515158152505081526020019060010190610514565b50505050915050919050565b600060046000838152602001908152602001600020805490509050919050565b60036000828152602001908152602001600020600083815260200190815260200160002060020160019054906101000a900460ff16610630576040517f08c379a000000000000000000000000000000000000000000000000000000000815260040161062790610c5b565b60405180910390fd5b60036000828152602001908152602001600020600083815260200190815260200160002060020160009054906101000a900460ff16156106a5576040517f08c379a000000000000000000000000000000000000000000000000000000000815260040161069c90610c3b565b60405180910390fd5b60006106b08261059c565b905060008090505b8181101561074d57836004600085815260200190815260200160002082815481106106df57fe5b906000526020600020906003020160000154141561074057600160046000858152602001908152602001600020828154811061071757fe5b906000526020600020906003020160020160006101000a81548160ff0219169083151502179055505b80806001019150506106b8565b50600160036000848152602001908152602001600020600085815260200190815260200160002060020160006101000a81548160ff0219169083151502179055507f894a69eb1c0cfff869484bb21ebb2bef789524352df4e285a561fd40b1efa74583836040516107bf929190610bf2565b60405180910390a1505050565b60008060036000848152602001908152602001600020600085815260200190815260200160002060020160019054906101000a900460ff16610843576040517f08c379a000000000000000000000000000000000000000000000000000000000815260040161083a90610c5b565b60405180910390fd5b6003600084815260200190815260200160002060008581526020019081526020016000206001015460036000858152602001908152602001600020600086815260200190815260200160002060020160009054906101000a900460ff16915091509250929050565b6000813590506108ba81610d3d565b92915050565b6000813590506108cf81610d54565b92915050565b6000602082840312156108e757600080fd5b60006108f5848285016108ab565b91505092915050565b6000806040838503121561091157600080fd5b600061091f858286016108ab565b9250506020610930858286016108ab565b9150509250929050565b6000806040838503121561094d57600080fd5b600061095b858286016108ab565b925050602061096c858286016108c0565b9150509250929050565b60006109828383610aff565b60808301905092915050565b600061099982610ccf565b6109a38185610ce7565b93506109ae83610cbf565b8060005b838110156109df5781516109c68882610976565b97506109d183610cda565b9250506001810190506109b2565b5085935050505092915050565b6109f581610d09565b82525050565b610a0481610d09565b82525050565b610a1381610d15565b82525050565b610a2281610d15565b82525050565b610a39610a3482610d15565b610d29565b82525050565b6000610a4c600c83610cf8565b91507f556e617574686f72697a656400000000000000000000000000000000000000006000830152602082019050919050565b6000610a8c601d83610cf8565b91507f496e766f6963652068617320616c7265616479206265656e20706169640000006000830152602082019050919050565b6000610acc601183610cf8565b91507f496e766f696365206e6f7420466f756e640000000000000000000000000000006000830152602082019050919050565b608082016000820151610b156000850182610a0a565b506020820151610b286020850182610b54565b506040820151610b3b60408501826109ec565b506060820151610b4e60608501826109ec565b50505050565b610b5d81610d1f565b82525050565b610b6c81610d1f565b82525050565b610b83610b7e82610d1f565b610d33565b82525050565b6000610b958285610a28565b602082019150610ba58284610b72565b6020820191508190509392505050565b60006020820190508181036000830152610bcf818461098e565b905092915050565b6000602082019050610bec60008301846109fb565b92915050565b6000604082019050610c076000830185610a19565b610c146020830184610a19565b9392505050565b60006020820190508181036000830152610c3481610a3f565b9050919050565b60006020820190508181036000830152610c5481610a7f565b9050919050565b60006020820190508181036000830152610c7481610abf565b9050919050565b6000602082019050610c906000830184610b63565b92915050565b6000604082019050610cab6000830185610b63565b610cb860208301846109fb565b9392505050565b6000819050602082019050919050565b600081519050919050565b6000602082019050919050565b600082825260208201905092915050565b600082825260208201905092915050565b60008115159050919050565b6000819050919050565b6000819050919050565b6000819050919050565b6000819050919050565b610d4681610d15565b8114610d5157600080fd5b50565b610d5d81610d1f565b8114610d6857600080fd5b5056fea365627a7a72315820812bea7a98bdee35bbcac0a173f6e313dab70b30957ef8ca44fd9a31386f71d16c6578706572696d656e74616cf564736f6c63430005100040",
  "source": "pragma solidity 0.5.16;\npragma experimental ABIEncoderV2;\n\nimport \"./Owner.sol\";\n\ncontract Invoicing is Owner {\n    uint256 invoiceCount = 0;\n    bytes32 hashID;\n    struct Invoice {\n        bytes32 hashID;\n        uint256 amountToPay;\n        bool isInvoicePaid;\n        bool exists;\n    }\n    \n    mapping (bytes32 => mapping (bytes32 => Invoice)) invoicesList;\n    mapping(bytes32 => Invoice[]) allInvoicesByCompany;\n    \n    event InvoiceAdded(bytes32 _hashId, bytes32 _payeeID);\n    event InvoicePaid(bytes32 _hashId, bytes32 _payeeID);\n    \n    // for authority to add invoice\n    function addInvoice(bytes32 _payeeID, uint256 _amountToPay) public onlyOwner {\n        // Create new random hash\n        invoiceCount++;\n        hashID = keccak256(abi.encodePacked(_payeeID, invoiceCount));\n        invoicesList[_payeeID][hashID] = Invoice(hashID, _amountToPay, false, true);\n        allInvoicesByCompany[_payeeID].push(Invoice(hashID, _amountToPay, false, true));\n        emit InvoiceAdded(hashID, _payeeID);\n    }\n    \n    // for companies\n    function getInvoiceStatus(bytes32 _hashID, bytes32 _payeeID) public view returns (uint256, bool){\n        // Validate invoice first\n        require (\n            invoicesList[_payeeID][_hashID].exists,\n            \"Invoice not Found\"\n        );\n        \n        return (invoicesList[_payeeID][_hashID].amountToPay, invoicesList[_payeeID][_hashID].isInvoicePaid);\n    }\n    \n    function getInvoicesCountByCompanyID (bytes32 _payeeID) public view returns (uint) {\n        return allInvoicesByCompany[_payeeID].length;\n    }\n    \n    // for companies\n    function payInvoice(bytes32 _hashID, bytes32 _payeeID) public payable {\n        // Validate invoice first\n        // If invoices with hashID = _hashID exist\n        require (\n            invoicesList[_payeeID][_hashID].exists,\n            \"Invoice not Found\"\n        );\n        \n        require (\n            !invoicesList[_payeeID][_hashID].isInvoicePaid,\n            \"Invoice has already been paid\"\n        );\n        // Search for allInvoicesByCompany array\n        uint count = getInvoicesCountByCompanyID(_payeeID);\n        for (uint i = 0; i < count; i++) {\n            if (allInvoicesByCompany[_payeeID][i].hashID == _hashID) {\n                allInvoicesByCompany[_payeeID][i].isInvoicePaid = true;\n            }\n        }\n        invoicesList[_payeeID][_hashID].isInvoicePaid = true;\n        emit InvoicePaid(_hashID, _payeeID);\n    }\n    \n    function getInvoicesByCompanyID (bytes32 _payeeID) public view returns (Invoice[] memory) {\n        uint count = getInvoicesCountByCompanyID(_payeeID);\n        require (\n            count > 0,\n            \"Invoice not Found\"\n        );\n        return allInvoicesByCompany[_payeeID];\n    }\n}",
  "sourcePath": "/Users/edwardalexanderjaya/Desktop/ITB-Internal-Activities/Semester_6/ET4043-Blockchain/Tugas_Akhir/tax-blockchain/contracts/Invoicing.sol",
  "compiler": {
    "name": "solc",
    "version": "0.5.16+commit.9c3226ce.Emscripten.clang"
  },
  "schemaVersion": "3.0.23",
  "updatedAt": "2020-05-06T15:14:50.859Z",
  "networkType": "ethereum",
  "devdoc": {
    "methods": {}
  },
  "userdoc": {
    "methods": {}
  }
}