{
  "contractName": "Invoicing",
  "abi": [
    {
      "anonymous": false,
      "inputs": [
        {
          "indexed": false,
          "internalType": "bytes32",
          "name": "_hashId",
          "type": "bytes32"
        },
        {
          "indexed": false,
          "internalType": "bytes32",
          "name": "_payeeID",
          "type": "bytes32"
        }
      ],
      "name": "InvoiceAdded",
      "type": "event"
    },
    {
      "anonymous": false,
      "inputs": [
        {
          "indexed": false,
          "internalType": "bytes32",
          "name": "_hashId",
          "type": "bytes32"
        },
        {
          "indexed": false,
          "internalType": "bytes32",
          "name": "_payeeID",
          "type": "bytes32"
        }
      ],
      "name": "InvoicePaid",
      "type": "event"
    },
    {
      "constant": true,
      "inputs": [],
      "name": "isCurrentOwner",
      "outputs": [
        {
          "internalType": "bool",
          "name": "",
          "type": "bool"
        }
      ],
      "payable": false,
      "stateMutability": "view",
      "type": "function"
    },
    {
      "constant": false,
      "inputs": [
        {
          "internalType": "bytes32",
          "name": "_payeeID",
          "type": "bytes32"
        },
        {
          "internalType": "uint256",
          "name": "_amountToPay",
          "type": "uint256"
        }
      ],
      "name": "addInvoice",
      "outputs": [],
      "payable": false,
      "stateMutability": "nonpayable",
      "type": "function"
    },
    {
      "constant": true,
      "inputs": [
        {
          "internalType": "bytes32",
          "name": "_hashID",
          "type": "bytes32"
        },
        {
          "internalType": "bytes32",
          "name": "_payeeID",
          "type": "bytes32"
        }
      ],
      "name": "getInvoiceStatus",
      "outputs": [
        {
          "internalType": "uint256",
          "name": "",
          "type": "uint256"
        },
        {
          "internalType": "bool",
          "name": "",
          "type": "bool"
        }
      ],
      "payable": false,
      "stateMutability": "view",
      "type": "function"
    },
    {
      "constant": true,
      "inputs": [
        {
          "internalType": "bytes32",
          "name": "_payeeID",
          "type": "bytes32"
        }
      ],
      "name": "getInvoicesCountByCompanyID",
      "outputs": [
        {
          "internalType": "uint256",
          "name": "",
          "type": "uint256"
        }
      ],
      "payable": false,
      "stateMutability": "view",
      "type": "function"
    },
    {
      "constant": false,
      "inputs": [
        {
          "internalType": "bytes32",
          "name": "_hashID",
          "type": "bytes32"
        },
        {
          "internalType": "bytes32",
          "name": "_payeeID",
          "type": "bytes32"
        }
      ],
      "name": "payInvoice",
      "outputs": [],
      "payable": true,
      "stateMutability": "payable",
      "type": "function"
    },
    {
      "constant": true,
      "inputs": [
        {
          "internalType": "bytes32",
          "name": "_payeeID",
          "type": "bytes32"
        }
      ],
      "name": "getInvoicesByCompanyID",
      "outputs": [
        {
          "components": [
            {
              "internalType": "bytes32",
              "name": "hashID",
              "type": "bytes32"
            },
            {
              "internalType": "uint256",
              "name": "amountToPay",
              "type": "uint256"
            },
            {
              "internalType": "bool",
              "name": "isInvoicePaid",
              "type": "bool"
            },
            {
              "internalType": "bool",
              "name": "exists",
              "type": "bool"
            }
          ],
          "internalType": "struct Invoicing.Invoice[]",
          "name": "",
          "type": "tuple[]"
        }
      ],
      "payable": false,
      "stateMutability": "view",
      "type": "function"
    }
  ],
  "bytecode": "0x6080604052336000806101000a81548173ffffffffffffffffffffffffffffffffffffffff021916908373ffffffffffffffffffffffffffffffffffffffff160217905550610d9e806100536000396000f3fe6080604052600436106100555760003560e01c806312a8b6891461005a57806316e2da21146100835780633eb91589146100ae57806369127e99146100eb578063bf4f1c3114610128578063c169545714610144575b600080fd5b34801561006657600080fd5b50610081600480360361007c919081019061092a565b610182565b005b34801561008f57600080fd5b506100986103e3565b6040516100a59190610bc7565b60405180910390f35b3480156100ba57600080fd5b506100d560048036036100d091908101906108c5565b61047b565b6040516100e29190610ba5565b60405180910390f35b3480156100f757600080fd5b50610112600480360361010d91908101906108c5565b610588565b60405161011f9190610c6b565b60405180910390f35b610142600480360361013d91908101906108ee565b6105a8565b005b34801561015057600080fd5b5061016b600480360361016691908101906108ee565b6107bc565b604051610179929190610c86565b60405180910390f35b6000809054906101000a900473ffffffffffffffffffffffffffffffffffffffff1673ffffffffffffffffffffffffffffffffffffffff163373ffffffffffffffffffffffffffffffffffffffff1614610211576040517f08c379a000000000000000000000000000000000000000000000000000000000815260040161020890610c0b565b60405180910390fd5b8181604051602001610224929190610b79565b6040516020818303038152906040528051906020012060018190555060405180608001604052806001548152602001828152602001600015158152602001600115158152506002600084815260200190815260200160002060006001548152602001908152602001600020600082015181600001556020820151816001015560408201518160020160006101000a81548160ff02191690831515021790555060608201518160020160016101000a81548160ff02191690831515021790555090505060036000838152602001908152602001600020604051806080016040528060015481526020018381526020016000151581526020016001151581525090806001815401808255809150509060018203906000526020600020906003020160009091929091909150600082015181600001556020820151816001015560408201518160020160006101000a81548160ff02191690831515021790555060608201518160020160016101000a81548160ff0219169083151502179055505050507f2483f0687c3490258a562583465f4430c867cf94a6c0bbad25f039be8d404fef600154836040516103d7929190610be2565b60405180910390a15050565b60008060009054906101000a900473ffffffffffffffffffffffffffffffffffffffff1673ffffffffffffffffffffffffffffffffffffffff163373ffffffffffffffffffffffffffffffffffffffff1614610474576040517f08c379a000000000000000000000000000000000000000000000000000000000815260040161046b90610c0b565b60405180910390fd5b6001905090565b6060600061048883610588565b9050600081116104cd576040517f08c379a00000000000000000000000000000000000000000000000000000000081526004016104c490610c4b565b60405180910390fd5b60036000848152602001908152602001600020805480602002602001604051908101604052809291908181526020016000905b8282101561057c578382906000526020600020906003020160405180608001604052908160008201548152602001600182015481526020016002820160009054906101000a900460ff161515151581526020016002820160019054906101000a900460ff16151515158152505081526020019060010190610500565b50505050915050919050565b600060036000838152602001908152602001600020805490509050919050565b60026000828152602001908152602001600020600083815260200190815260200160002060020160019054906101000a900460ff1661061c576040517f08c379a000000000000000000000000000000000000000000000000000000000815260040161061390610c4b565b60405180910390fd5b60026000828152602001908152602001600020600083815260200190815260200160002060020160009054906101000a900460ff1615610691576040517f08c379a000000000000000000000000000000000000000000000000000000000815260040161068890610c2b565b60405180910390fd5b600061069c82610588565b905060008090505b8181101561073d57836003600085815260200190815260200160002082815481106106cb57fe5b906000526020600020906003020160000154141561073057600160036000858152602001908152602001600020828154811061070357fe5b906000526020600020906003020160020160006101000a81548160ff02191690831515021790555061073d565b80806001019150506106a4565b50600160026000848152602001908152602001600020600085815260200190815260200160002060020160006101000a81548160ff0219169083151502179055507f894a69eb1c0cfff869484bb21ebb2bef789524352df4e285a561fd40b1efa74583836040516107af929190610be2565b60405180910390a1505050565b60008060026000848152602001908152602001600020600085815260200190815260200160002060020160019054906101000a900460ff16610833576040517f08c379a000000000000000000000000000000000000000000000000000000000815260040161082a90610c4b565b60405180910390fd5b6002600084815260200190815260200160002060008581526020019081526020016000206001015460026000858152602001908152602001600020600086815260200190815260200160002060020160009054906101000a900460ff16915091509250929050565b6000813590506108aa81610d2d565b92915050565b6000813590506108bf81610d44565b92915050565b6000602082840312156108d757600080fd5b60006108e58482850161089b565b91505092915050565b6000806040838503121561090157600080fd5b600061090f8582860161089b565b92505060206109208582860161089b565b9150509250929050565b6000806040838503121561093d57600080fd5b600061094b8582860161089b565b925050602061095c858286016108b0565b9150509250929050565b60006109728383610aef565b60808301905092915050565b600061098982610cbf565b6109938185610cd7565b935061099e83610caf565b8060005b838110156109cf5781516109b68882610966565b97506109c183610cca565b9250506001810190506109a2565b5085935050505092915050565b6109e581610cf9565b82525050565b6109f481610cf9565b82525050565b610a0381610d05565b82525050565b610a1281610d05565b82525050565b610a29610a2482610d05565b610d19565b82525050565b6000610a3c600c83610ce8565b91507f556e617574686f72697a656400000000000000000000000000000000000000006000830152602082019050919050565b6000610a7c601d83610ce8565b91507f496e766f6963652068617320616c7265616479206265656e20706169640000006000830152602082019050919050565b6000610abc601183610ce8565b91507f496e766f696365206e6f7420466f756e640000000000000000000000000000006000830152602082019050919050565b608082016000820151610b0560008501826109fa565b506020820151610b186020850182610b44565b506040820151610b2b60408501826109dc565b506060820151610b3e60608501826109dc565b50505050565b610b4d81610d0f565b82525050565b610b5c81610d0f565b82525050565b610b73610b6e82610d0f565b610d23565b82525050565b6000610b858285610a18565b602082019150610b958284610b62565b6020820191508190509392505050565b60006020820190508181036000830152610bbf818461097e565b905092915050565b6000602082019050610bdc60008301846109eb565b92915050565b6000604082019050610bf76000830185610a09565b610c046020830184610a09565b9392505050565b60006020820190508181036000830152610c2481610a2f565b9050919050565b60006020820190508181036000830152610c4481610a6f565b9050919050565b60006020820190508181036000830152610c6481610aaf565b9050919050565b6000602082019050610c806000830184610b53565b92915050565b6000604082019050610c9b6000830185610b53565b610ca860208301846109eb565b9392505050565b6000819050602082019050919050565b600081519050919050565b6000602082019050919050565b600082825260208201905092915050565b600082825260208201905092915050565b60008115159050919050565b6000819050919050565b6000819050919050565b6000819050919050565b6000819050919050565b610d3681610d05565b8114610d4157600080fd5b50565b610d4d81610d0f565b8114610d5857600080fd5b5056fea365627a7a72315820d7372cb5a952f7bf1b617ab96905ff4c36489b0a7a4952e28d36582464b5203b6c6578706572696d656e74616cf564736f6c63430005100040",
  "source": "pragma solidity 0.5.16;\npragma experimental ABIEncoderV2;\n\nimport \"./Owner.sol\";\n\ncontract Invoicing is Owner {\n    \n    bytes32 hashID;\n    struct Invoice {\n        bytes32 hashID;\n        uint256 amountToPay;\n        bool isInvoicePaid;\n        bool exists;\n    }\n    \n    mapping (bytes32 => mapping (bytes32 => Invoice)) invoicesList;\n    mapping(bytes32 => Invoice[]) allInvoicesByCompany;\n    \n    event InvoiceAdded(bytes32 _hashId, bytes32 _payeeID);\n    event InvoicePaid(bytes32 _hashId, bytes32 _payeeID);\n    \n    // for authority to add invoice\n    function addInvoice(bytes32 _payeeID, uint256 _amountToPay) public onlyOwner {\n        // Create new random hash\n        hashID = keccak256(abi.encodePacked(_payeeID, _amountToPay));\n        invoicesList[_payeeID][hashID] = Invoice(hashID, _amountToPay, false, true);\n        allInvoicesByCompany[_payeeID].push(Invoice(hashID, _amountToPay, false, true));\n        emit InvoiceAdded(hashID, _payeeID);\n    }\n    \n    // for companies\n    function getInvoiceStatus(bytes32 _hashID, bytes32 _payeeID) public view returns (uint256, bool){\n        // Validate invoice first\n        require (\n            invoicesList[_payeeID][_hashID].exists,\n            \"Invoice not Found\"\n        );\n        \n        return (invoicesList[_payeeID][_hashID].amountToPay, invoicesList[_payeeID][_hashID].isInvoicePaid);\n    }\n    \n    function getInvoicesCountByCompanyID (bytes32 _payeeID) public view returns (uint) {\n        return allInvoicesByCompany[_payeeID].length;\n    }\n    \n    // for companies\n    function payInvoice(bytes32 _hashID, bytes32 _payeeID) public payable {\n        // Validate invoice first\n        // If invoices with hashID = _hashID exist\n        require (\n            invoicesList[_payeeID][_hashID].exists,\n            \"Invoice not Found\"\n        );\n        \n        require (\n            !invoicesList[_payeeID][_hashID].isInvoicePaid,\n            \"Invoice has already been paid\"\n        );\n        // Search for allInvoicesByCompany array\n        uint count = getInvoicesCountByCompanyID(_payeeID);\n        for (uint i = 0; i < count; i++) {\n            if (allInvoicesByCompany[_payeeID][i].hashID == _hashID) {\n                allInvoicesByCompany[_payeeID][i].isInvoicePaid = true;\n                break;\n            }\n        }\n        invoicesList[_payeeID][_hashID].isInvoicePaid = true;\n        emit InvoicePaid(_hashID, _payeeID);\n    }\n    \n    function getInvoicesByCompanyID (bytes32 _payeeID) public view returns (Invoice[] memory) {\n        uint count = getInvoicesCountByCompanyID(_payeeID);\n        require (\n            count > 0,\n            \"Invoice not Found\"\n        );\n        return allInvoicesByCompany[_payeeID];\n    }\n}",
  "sourcePath": "/Users/edwardalexanderjaya/Desktop/ITB-Internal-Activities/Semester_6/ET4043-Blockchain/Tugas_Akhir/tax-blockchain/contracts/Invoicing.sol",
  "compiler": {
    "name": "solc",
    "version": "0.5.16+commit.9c3226ce.Emscripten.clang"
  },
  "schemaVersion": "3.0.23",
  "updatedAt": "2020-05-04T08:33:11.742Z",
  "networkType": "ethereum",
  "devdoc": {
    "methods": {}
  },
  "userdoc": {
    "methods": {}
  }
}