{
  "contractName": "Owner",
  "abi": [
    {
      "inputs": [],
      "payable": false,
      "stateMutability": "nonpayable",
      "type": "constructor"
    },
    {
      "constant": true,
      "inputs": [],
      "name": "isCurrentOwner",
      "outputs": [
        {
          "internalType": "bool",
          "name": "",
          "type": "bool"
        }
      ],
      "payable": false,
      "stateMutability": "view",
      "type": "function"
    }
  ],
  "bytecode": "0x608060405234801561001057600080fd5b50336000806101000a81548173ffffffffffffffffffffffffffffffffffffffff021916908373ffffffffffffffffffffffffffffffffffffffff160217905550610152806100606000396000f3fe608060405234801561001057600080fd5b506004361061002b5760003560e01c806316e2da2114610030575b600080fd5b610038610052565b604051808215151515815260200191505060405180910390f35b60008060009054906101000a900473ffffffffffffffffffffffffffffffffffffffff1673ffffffffffffffffffffffffffffffffffffffff163373ffffffffffffffffffffffffffffffffffffffff1614610116576040517f08c379a000000000000000000000000000000000000000000000000000000000815260040180806020018281038252600c8152602001807f556e617574686f72697a6564000000000000000000000000000000000000000081525060200191505060405180910390fd5b600190509056fea265627a7a7231582045235ffd6d3cc96a367da30d8e12302c807661857735cbfc657b2ac2bab4d6d064736f6c63430005100032",
  "source": "pragma solidity 0.5.16;\ncontract Owner {\n    address private owner;\n    modifier onlyOwner () {\n        require(msg.sender == owner, \"Unauthorized\");\n        _;\n    }\n    constructor () public {\n        owner = msg.sender;\n    }\n    \n    function isCurrentOwner() public view onlyOwner returns (bool) {\n        return true;\n    }\n}",
  "sourcePath": "/Users/edwardalexanderjaya/Desktop/ITB-Internal-Activities/Semester_6/ET4043-Blockchain/Tugas_Akhir/tax-blockchain/contracts/Owner.sol",
  "compiler": {
    "name": "solc",
    "version": "0.5.16+commit.9c3226ce.Emscripten.clang"
  },
  "schemaVersion": "3.0.23",
  "updatedAt": "2020-05-06T15:14:51.171Z",
  "networkType": "ethereum",
  "devdoc": {
    "methods": {}
  },
  "userdoc": {
    "methods": {}
  }
}